:020000040800F2
:10000000B84B00242D0300087316009023120090B3
:10001000711600900F050090BD17009000000000C1
:10002000000000000000000000000000FD1600902D
:10003000AD0500900000000075160090FF160090BE
:100040004703000847030008470300084703000868
:100050004703000847030008470300084703000858
:100060004703000847030008470300084703000848
:100070004703000847030008470300084703000838
:100080004703000847030008470300084703000828
:100090004703000847030008470300084703000818
:1000A0004703000847030008470300084703000808
:1000B00047030008470300084703000847030008F8
:1000C00047030008470300084703000847030008E8
:1000D00047030008470300084703000847030008D8
:1000E000470300084703000800000000470300081A
:1000F00047030008470300084703000847030008B8
:1001000047030008470300084703000847030008A7
:100110004703000847030008470300084703000897
:100120004703000847030008470300084703000887
:100130004703000847030008470300084703000877
:1001400000000000000000000000000000000000AF
:100150004703000847030008470300084703000857
:100160004703000847030008470300084703000847
:100170004703000847030008470300084703000837
:100180004703000847030008470300084703000827
:100190004703000847030008470300084703000817
:1001A0002512009047030008A105009047030008AE
:1001B00047030008470300084703000847030008F7
:1001C00047030008470300084703000847030008E7
:1001D00047030008470300084703000847030008D7
:1001E00047030008470300084703000847030008C7
:1001F00047030008470300084703000847030008B7
:1002000047030008470300084703000847030008A6
:100210004703000847030008470300084703000896
:1002200047030008470300084703000800000000D8
:1002300047030008470300080000000047030008C8
:100240004703000847030008470300084703000866
:100250004703000847030008470300084703000856
:100260004703000847030008470300084703000846
:100270004703000847030008470300080000000088
:100280004703000847030008470300080000000078
:10029000000000004703000800F002F800F066F8D4
:1002A0000AA090E8000C82448344AAF10107DA45D1
:1002B00001D100F05BF8AFF2090EBAE80F0013F0BD
:1002C000010F18BFFB1A43F001031847281900005B
:1002D000481900000A4410F8014B14F00F0508BF3C
:1002E00010F8015B240908BF10F8014B6D1E05D002
:1002F00010F8013B6D1E01F8013BF9D1641E03D0DB
:10030000641E01F8015BFBD19142E4D37047000009
:100310000023002400250026103A28BF78C1FBD80E
:10032000520728BF30C148BF0B607047094880475B
:1003300009480047FEE7FEE7FEE7FEE7FEE7FEE7C7
:10034000FEE7FEE7FEE7FEE704480549054A064BDF
:1003500070470000F91A000899020008B845002407
:10036000B84B0024B8470024B847002440F21F0CC3
:10037000C9F2000C604740F6E53CC9F2000C60474A
:1003800040F65D4CC9F2000C604740F6D93CC9F21A
:10039000000C60472DE9FC4F01257E4C00234FF0F7
:1003A000030A4FF0B04E4FF00F0BEBE005FA03F6E7
:1003B00037403A0077D04F68012F05D0022F03D085
:1003C000112F01D0122F1AD187684FEA4308D1F8B4
:1003D0000CC00AFA08F927EA09070CFA08FC4CEAEB
:1003E000070CC0F808C0476891F804C0B743CCF3C5
:1003F000001C0CFA03FC4CEA070CC0F804C0C668E9
:100400004FEA430CD1F80880E1460AFA0CF7BE43E4
:10041000019708FA09F848EA0608C0F80C804E6807
:10042000022E01D0122E12D1DE084FEA437C00EBDF
:10043000860600960F69366A4FEADC6C0BFA0CF8F8
:1004400007FA0CF726EA08063743009E37620E7952
:100450000768DDF804C006F0030606FA09F627EA85
:100460000C073E4306604E68F6001CD54A4E3768BE
:1004700047F00207376036689F0706F002060096CD
:1004800023F0030606F1B046B1463F0FD6F80864E4
:10049000DFF808810BFA07FC404526EA0C0603D179
:1004A0004FF0000C41E06CE0DFF8F4C0604502D191
:1004B0004FF0010C39E0DFF8ECC0604502D14FF09D
:1004C000020C32E0DFF8E0C0604502D14FF0030CCF
:1004D0002BE0DFF8D8C0604502D14FF0040C24E0D7
:1004E000DFF8CCC0604502D14FF0050C1DE0DFF80D
:1004F000C4C0604502D14FF0060C16E0DFF8B8C06A
:10050000604502D14FF0070C0FE0DFF8B0C0604546
:1005100002D14FF0080C08E0DFF8A4C0604502D11A
:100520004FF0090C01E04FF00A0C0CFA07FC4CEA02
:10053000060CC9F808C426684F6826EA0206FF03BD
:1005400000D51643266066684F6826EA0206BF0398
:1005500000D516436660D1F804C07646DEF8007018
:100560005FEACC2C27EA020700D517433760D1F8A1
:1005700004C077685FEA8C2C27EA020700D517438E
:1005800077605B1C0A681746DA407FF40FAFBDE85E
:10059000FC8F000080000058F4440258000002580C
:1005A0000004025800080258000C025800100258BB
:1005B0000014025800180258001C0258002002586B
:1005C000002402580AB1816170470904FBE700006A
:1005D0002DE9FC5F044650F8241B002500902E46B0
:1005E0000801FE4FDFF8F8831DD5606E50B1B0F5FD
:1005F000801F0CD0B0F5001F0ED0B0F5401F1DD0ED
:1006000001250FE0386840F40030386016E0022120
:10061000201D01F051F903E00098022101F0DCF9FE
:1006200005000BD02E462088C00523D5606D052817
:100630001ED2DFE800F00C11161B1B00626ED8F80A
:10064000001021F440111143C8F80010EBE738689E
:1006500040F40030386009E00021201D01F02CF941
:1006600003E00098002101F0B7F905466DB100E004
:1006700001252E462088800528D5A06D80281ED013
:100680000CDC90B140280ED114E0626DD8F8001057
:1006900021F007011143C8F80010EBE7C02813D080
:1006A000B0F5807F10D001250FE0386840F40030AD
:1006B000386009E00021201D01F0FEF803E00098F9
:1006C000002101F089F9054695B12E462088DFF812
:1006D0001093400509F108092CD5D4F8A400B0F511
:1006E000800F20D00DDCA0B1B0F5001F0FD115E0B8
:1006F000A26DD8F8001021F4E0711143C8F8001081
:10070000E4E7B0F5C00F13D0B0F5000F10D001250D
:100710000FE0386840F40030386009E00021201D07
:1007200001F0CAF803E00098002101F055F90546F0
:1007300075B12E46208800052DD5D4F8A800B0F15B
:10074000007F21D00EDCA8B1B0F1807F10D116E07F
:10075000D4F8A420D9F8001021F460011143C9F89D
:100760000010E7E7B0F1407F13D0B0F1806F10D0F8
:1007700001250FE0386840F40030386009E00021BE
:10078000201D01F099F803E00098002101F024F900
:1007900005466DB12E46206880011FD5A06CD8B1EA
:1007A00010280FD0202812D0302815D0012514E0B1
:1007B000D4F8A820D9F8001021F0E0611143C9F85D
:1007C0000010E8E7386840F40030386004E00221A7
:1007D000201D01F071F805466DB12E462088C00439
:1007E0002BD5E06DB0F5005F20D00DDCA0B1B0F5E9
:1007F000805F0FD115E07A48A26C001F016821F0DC
:10080000300111430160E9E7B0F5405F13D0B0F566
:10081000804F10D001250FE0386840F40030386078
:1008200009E00021201D01F047F803E000980021B5
:1008300001F0D2F8054685B12E462088800429D5DE
:10084000206EB0F5403F23D010DC08B3B0F5803FF8
:1008500014D0B0F5003F0FD115E0E26DD8F80010CC
:1008600021F4E0411143C8F80010E6E7B0F5802F0D
:100870000ED0B0F5A02F0BD001250AE00121201DDC
:1008800001F01AF803E00098012101F0A5F80546EF
:100890008DB12E46208840042AD5D4F8AC00B0F1A2
:1008A000405F23D010DC08B3B0F1805F14D0B0F10A
:1008B000005F0FD115E0226ED8F8001021F4E0217E
:1008C0001143C8F80010E5E7B0F1804F0ED0B0F149
:1008D000A04F0BD001250AE00121201D00F0ECFF04
:1008E00003E00098012101F077F805466DB12E462E
:1008F000208800041FD5E06ED8B1B0F1805F0ED023
:10090000B0F1005F10D0012514E0D4F8AC20D9F884
:10091000001021F0E0411143C9F80010E8E7386801
:1009200040F40030386004E00121201D00F0C4FFD5
:1009300005466DB12E462068C0011ED5606CD0B151
:1009400001280ED0022811D0032814D0012513E06D
:10095000E26ED8F8001021F040511143C8F80010A1
:10096000E9E7386840F40030386004E00221201DD7
:1009700000F0A2FF054685B12E462068DFF85CB086
:100980004002ABF11C0B57D51648016841F4807149
:100990000160FFF7F0FC82460EE01148626C001F18
:1009A000016821F0030111430160E6E7FFF7E3FC72
:1009B000A0EB0A0064283DD80A480068C005F5D5B8
:1009C0007DBBDFF81CA0B4F8B0200AF1200ADAF8E9
:1009D000001002F4407001F4407105E02C4402580C
:1009E0005044025800480258814211D0DAF80010F1
:1009F000DAF8002021F4407142F48032CAF8002075
:100A0000DAF8002022F48032CAF80020CAF8001078
:100A1000D4F8B000B0F5807F21D1FFF7ACFC019095
:100A200019E008E0FFF7A7FC0199411A41F288306C
:100A3000814210D903252E462078DFF844A4C00750
:100A40003DD0A06F182838D026DC80B3082829D0E4
:100A5000102825D12CE0DAF800008007E2D5D4F880
:100A6000B010C1F30120032858460DD0016821F4CD
:100A70007C510160B4F8B020DAF80010C2F30B0228
:100A80001143CAF80010D7E7FE4A036802EA1112C0
:100A900023F47C511143ECE720280ED028280CD0F9
:100AA00001250BE00121201D00F006FF04E004E019
:100AB0000098012100F090FF05465DB12E46207898
:100AC00080071ED5606F062819D2DFE800F0160CEB
:100AD00011161616A26FDAF8001021F03801114332
:100AE000CAF80010EBE70121201D00F0E5FE03E04D
:100AF0000098012100F070FF054675B100E0012566
:100B00002E46207840071FD5D4F89000062819D229
:100B1000DFE800F0160C11161616626FDAF80010F6
:100B200021F007011143CAF80010EAE70121201D56
:100B300000F0C2FE03E00098012100F04DFF0546E1
:100B40009DB100E001252E46207880062BD5D4F8F3
:100B50008C00B0F1405F24D011DC10B3B0F1805FA5
:100B600015D0B0F1005F10D116E0D4F89020D9F87C
:100B7000001021F007011143C9F80010E4E7B0F1BB
:100B8000804F0ED0B0F1A04F0BD001250AE000211C
:100B9000201D00F091FE03E00098022100F01CFFF0
:100BA00005468DB12E46207840062BD5D4F8980006
:100BB000B0F5406F24D011DC10B3B0F5806F15D0C4
:100BC000B0F5006F10D116E0D4F88C20DAF80010E0
:100BD00021F0E0411143CAF80010E4E7B0F5805F6E
:100BE0000ED0B0F5A05F0BD001250AE00021201D3A
:100BF00000F062FE03E00098022100F0EDFE0546E1
:100C00008DB12E46207800062BD5D4F89C00B0F587
:100C1000C04F24D011DC10B3B0F5005F15D0B0F593
:100C2000804F10D116E0D4F89820D9F8001021F4A4
:100C3000E0511143C9F80010E4E7B0F5004F0ED0C1
:100C4000B0F5204F0BD001250AE00021201D00F057
:100C500033FE03E00098022100F0BEFE05464DB1D0
:100C60002E46207800071ED5D4F88000B0F5805FAE
:100C70000AD00FE0D4F89C20D9F8001021F460418C
:100C80001143C9F80010ECE70098022100F0A4FE1F
:100C900000B10126D4F88020DAF8001021F4405188
:100CA0001143CAF800102078C00613D5D4F8940078
:100CB000B0F5807F05D10098022100F08DFE00B1D3
:100CC0000126D4F89420D9F8001021F44071114382
:100CD000C9F800102068000316D5D4F8A00038B178
:100CE000B0F5803F09D0B0F5003F0BD001250AE0F8
:100CF0000021201D00F0E0FD03E00098022100F03B
:100D00006BFE054685B12E462068400322D5D4F8F7
:100D10008400B0F5801F11D0B0F5001F13D0B0F5DE
:100D2000401F15D0012514E0D4F8A020D9F80010F8
:100D300021F440311143C9F80010E5E7386840F468
:100D40000030386004E00098012100F045FE0546BF
:100D500055B12E462068C0031CD5E06C70B1B0F5CB
:100D6000803F10D0012514E0D4F88420DAF8001078
:100D700021F440111143CAF80010EBE7386840F441
:100D80000030386004E00221201D00F095FD05468A
:100D9000CDB12E462068800005D50098022100F0D4
:100DA0001BFE00B10126206880031BD5E06FB8B19F
:100DB000B0F5807F10D0B0F5007F11D0B0F5407F46
:100DC0000ED001250DE02E48E26C0838016821F4B0
:100DD000803111430160DDE7386840F4003038604D
:100DE000F5B32E462068C00207D5226FD8F8001050
:100DF00021F000411143C8F800102068C00008D558
:100E0000D4F8B420DBF8001021F480411143CBF872
:100E100000102068800207D5A26ED8F8001021F0DB
:100E200080711143C8F80010206840000CD5DBF831
:100E3000001021F40041CBF80010DBF80010D4F8CA
:100E4000B8201143CBF800102068002807DA0C48BE
:100E5000226D0838016821F040511143016000E023
:100E600014E02068000208D5D4F88820DAF80010D1
:100E700021F440011143CAF8001086B1012003E0BB
:100E800054440258CFFFFF00BDE8FC9FE26FDAF840
:100E9000001021F440711143CAF80010A2E70020AD
:100EA000EDE700002DE9F05F04000F467ED0DFF88B
:100EB0003882D8F8000000F00F00B8420CD2D8F801
:100EC000001021F00F013943C8F80010D8F80000D5
:100ED00000F00F00B84269D12078844D40070AD550
:100EE0002069296801F07001884204D9296821F03D
:100EF00070010143296020787C4E361D00070AD519
:100F00006069316801F07001884204D9316821F0CC
:100F10007001014331602078C0060AD5A0693168AC
:100F200001F4E061884204D9316821F4E0610143B1
:100F300031602078DFF8B4B180060BF1080B0CD5D6
:100F4000E1695846DBF8002002F07002914204D9B2
:100F5000026822F070020A430260207880070AD5F6
:100F6000E068296801F00F01884204D9296821F05E
:100F70000F01014329602078C0073ED05B49A26879
:100F80002868183920F470601043286060680228CF
:100F900018D0032819D00968012819D04907002959
:100FA0004ADADFF848A1AAF1080A00E044E0DAF8DA
:100FB000002022F007020243CAF80020FFF7DBF905
:100FC000814612E009688903E9E709688901E6E7D3
:100FD000C905E4E7FFF7CFF9A0EB090141F288303A
:100FE000814202D90320BDE8F09F6168DAF8000071
:100FF00000F03800B0EBC10FECD1207880070AD5A3
:10100000E068296801F00F01884204D2296821F0C4
:101010000F0101432960D8F80010404601F00F018C
:10102000B9420BD9016821F00F0139430160006812
:1010300000F00F00B84201D00120D4E7207840072B
:101040000AD52069296801F07001884204D2296814
:1010500021F0700101432960207800070AD56069FA
:10106000316801F07001884204D2316821F07001CA
:10107000014331602078C0060AD5A069316801F4C7
:10108000E061884204D2316821F4E06101433160BB
:10109000207880060CD5E1695846DBF8002002F084
:1010A0007002914204D2026822F070020A43026088
:1010B00000F026F80E492A682B68C2F3032203F0D9
:1010C0000F038A5CC95C02F01F0201F01F01D040CF
:1010D000084A20FA01F111600749086007480068D2
:1010E000BDE8F05FFFF74CB90020005218440258E9
:1010F000E41B0008300000242C00002424000024FD
:10110000454970B545480968434B103B11F038021A
:1011100008D00111082A03D0102A0BD0182A0BD0AE
:10112000084670BD19688906FBD51968C1F3C1016D
:10113000C84070BD3A4870BD3749374D18310C1D55
:1011400024350A68096826682D6802F0030406F051
:101150000102C1F30511C5F3CC0515FB02F200EE47
:10116000102AB8EE400AE9B32F4ADFED2E0AB7EE97
:10117000001A6CB1DFED2D1A012C01D0022C43D0E6
:1011800002EE101A1068F8EE422A81EEA22A1EE042
:101190001C68A40611D51B6801EE901A1168C3F3F0
:1011A000C103F8EE612AD84001EE900AC1F30800AD
:1011B000F8EE611A81EEA22A0BE001EE901ADFED43
:1011C0001C2A00BFF8EE611A106882EEA12AC0F353
:1011D000080001EE900AF8EE611A40EE201A31EE96
:1011E000810A00E015E022EE000A1068C0F34620F4
:1011F000401C00EE900AF8EE600A80EE201ABCEE69
:10120000C10A10EE100A70BD01EE901ADFED092A36
:10121000D8E7002070BD0000104402580090D003B1
:1012200040787D0100000039304402580024744A9F
:101230000024744C20BCBE4B2DE9F05F04007CD030
:10124000FF4F2078FE4D1837DFF8F493103DC007AC
:1012500048D0D9F80000396800F03800102815D0BF
:10126000182803D101F0030002280FD06068B0F500
:10127000803F12D010B1B0F5A02F18D0286820F40C
:1012800080302860286820F4802009E028688003E6
:1012900028D560680028D2D024E0286840F4803047
:1012A0002860606888B1FFF766F8064609E028689C
:1012B00040F480202860F0E7FFF75DF8801B642889
:1012C0007ED828688003F7D50CE0FFF754F806466F
:1012D00005E000BFFFF74FF8801B6428F0D82868AE
:1012E0008003F7D4207841F20308D54E0C3E8007E6
:1012F00053D5D9F80000396810F038000ED01828FE
:1013000001D188070AD0E068A8B3296821F0190143
:1013100001432960FFF72FF882461BE02868400749
:1013200002D5E06800288AD0FFF72FF840451BD887
:101330002069402812D0316800E0CCE021F47C31F3
:1013400041EA0030306028E0FFF715F8A0EB0A0012
:101350000228B5D828684007F6D5E5E7306820F4BC
:101360007C3040F40030EDE7207C316821F0FE4114
:1013700041EA0060E6E7FFE7286820F00100286006
:10138000FEF7F9FF824605E0FEF7F5FFA0EB0A0045
:10139000022895D828684007F6D42078C0065FD583
:1013A000D9F80000DFF898B2396800F03800ABF1E6
:1013B000040B082812D0182805D101F0030000E022
:1013C000EAE001280AD0E0690028286838D040F017
:1013D00080002860FEF7CFFF824623E02868C00522
:1013E00023D5E069802876D11FE0206A202821D00B
:1013F000316821F0F84141EA8060306030E000BFA0
:1014000094F82010DBF8002022F07C5242EA0161BF
:10141000CBF8001024E000BFFEF7ADFFA0EB0A0000
:10142000022896D82868C005F6D5FEF7AEFF4045DD
:10143000E6D8DAE7306820F0F84040F08040DCE79A
:1014400020F080002860FEF796FF064605E000BF0A
:10145000FEF791FF801B02289BD82868C005F7D4AF
:101460002078000729D576486169643000298046D4
:10147000016811D041F001010160FEF77CFF0646D2
:1014800005E000BFFEF777FF801B0228C9D8D8F817
:1014900000008007F6D510E021F001010160FEF7A1
:1014A0006AFF064605E000BFFEF765FF801B0228C5
:1014B00072D8D8F800008007F6D42078800623D5AB
:1014C000A0690028286810D040F480502860FEF7FA
:1014D00052FF064605E02CE1FEF74DFF801B022877
:1014E0005AD828688004F7D50EE020F48050286090
:1014F000FEF741FF064604E0FEF73DFF801B022891
:101500004AD828688004F7D4207840074FD5DFF800
:101510003481D8F8001041F48071C8F80010FEF74B
:101520002AFF064605E000BFFEF725FF801B642862
:1015300032D8D8F80000C005F6D5414EA068603614
:1015400001280AD008B1052813D0306820F0010026
:101550003060306820F0040002E0306840F00100A4
:101560003060A06841F2883A90B1FEF704FF8046EF
:101570000AE0306840F004003060EEE7FEF7FBFE62
:10158000A0EB0801514507D830688007F6D50EE07A
:10159000FEF7F1FE804607E084E000BFFEF7EBFEB9
:1015A000A0EB080151457DD830688007F6D4606A09
:1015B000F0B3DFF88C80D9F8001008F12008C1F3EF
:1015C000C20103296FD00228286820F080702860AB
:1015D00003D0FEF7D0FE044680E0FEF7CCFE0646C0
:1015E00005E000BFFEF7C7FE801B022873D82868FD
:1015F0008001F7D4E26A40F2F331386854F8283FAA
:10160000884340EA021018433860217B4FF4FE0CF7
:1016100022894FF0FE47208A4902267D521E401E35
:10162000A1F5007189B20CEA0040C2F3080200E0A3
:1016300081E01143761E0143014807EA066203E098
:1016400010440258004802581C3011433B4AC8F865
:101650000010016821F00101016011684FF6F87671
:10166000236AB14341EAC30111600168A26921F014
:101670000C01114301600168E26921F0020111438C
:101680000160016841F480310160016841F400317A
:101690000160016841F480210160016841F00101AD
:1016A000016001E017E01DE0286840F080702860CC
:1016B000FEF761FE044604E0FEF75DFE001B022813
:1016C00009D828688001F7D535E000BFFEF753FE42
:1016D000001B022802D90320BDE8F09F2868800182
:1016E000F4D428E039680128D8F8000021D0A26A93
:1016F00001F0030393421CD1E26AC1F305118A424F
:1017000017D1216BC0F30802491E8A4211D1616BC7
:10171000C0F34622491E91420BD1A16BC0F3064291
:10172000491E914205D1E16BC0F30660491E81421A
:1017300001D00120D0E70020CEE700003444025859
:1017400053482DE9F041524986B002680C39002413
:101750000A2642F0020202600568402202230327A3
:1017600045F02005056008684A4D40F48040086057
:10177000DFF82481694604968DE89C004046FEF718
:1017800009FE042069460927049700904046FEF7A9
:1017900001FE0497C020414F694600903846FEF78D
:1017A000F9FD4FF440706946049600903846FEF704
:1017B000F1FD37493748643920380A6842F48042DD
:1017C0000A600A6822F480420A6081688906FCD4B3
:1017D0003349344A01604260016841F0010101600F
:1017E00081688906FCD44FF49C7141618168890746
:1017F000FCD5C16841F00201C16081688906FCD452
:101800004FF48371416181688907FCD5C16841F05B
:101810000201C16081688906FCD4234941610461E9
:1018200081684907FCD530212970016841F0040125
:10183000016081688907FCD5C16841F00201C1607F
:1018400081688906FCD481688906FCD4174B184945
:10185000C461174A43617032086820F48030086020
:101860001768101D134E8B06051D27F0010CC2F8DA
:1018700000C02F1D4FF0050C04602B603E60C2F8C5
:1018800000C0086840F48030086006B0BDE8F08110
:10189000E04402582050005200040258001402583C
:1018A0001003000101041600C0030003EBEF180F42
:1018B00024ED00E02D0003032DE9F047454D0446DB
:1018C00089464FF0000A2868C04380070AD0414E7D
:1018D000283E306820F080603060FEF74CFD0746FF
:1018E000B04608E00120BDE8F08700BFFEF743FDE9
:1018F000C01B022867D8D8F800000001F6D4206881
:1019000029684FF4FE0721F47C313E0241EA0030A1
:101910002860207AA389B4F804C040022D4D2D49D7
:101920005B1E227CACF1010C1035091DA0F5007086
:1019300080B2521ECCF3080C07EA034340EA0C00C5
:10194000184306EA0262104328600868626920F0C2
:10195000C000104308600A68A06922F02002024318
:101960000A60281D0A6822F010020A6002684FF619
:10197000F873E4699A4342EAC40202600868B9F164
:10198000000F40F010020A6011D00868B9F1010F91
:1019900011D040F400100860D8F80000444640F030
:1019A0008060C8F80000FEF7E6FC05460DE0086818
:1019B00040F40020EFE740F48010ECE7FEF7DBFC9A
:1019C000401B022801D903208DE720680001F5D5CE
:1019D000504688E7284402582DE9F047454D044613
:1019E00089464FF0000A2868C04380070AD0414E5C
:1019F000283E306820F080503060FEF7BCFC07467F
:101A0000B04608E00120BDE8F08700BFFEF7B3FC58
:101A1000C01B022867D8D8F800008000F6D42088C0
:101A200029684FF4FE0721F07C713E0241EA005024
:101A30002860207AA389B4F804C040022D4D2D49B6
:101A40005B1E227CACF1010C1835091DA0F500705D
:101A500080B2521ECCF3080C07EA034340EA0C00A4
:101A6000184306EA0262104328600868626920F49D
:101A70004060104308600A68A06922F400720243C3
:101A80000A60281D0A6822F480720A6002684FF614
:101A9000F873E4699A4342EAC40202600868B9F143
:101AA000000F40F480720A6011D00868B9F1010F8C
:101AB00011D040F080700860D8F80000444640F033
:101AC0008050C8F80000FEF756FC05460DE0086897
:101AD00040F48000EFE740F40000ECE7FEF74BFC39
:101AE000401B022801D903208DE720688000F5D52E
:101AF000504688E7284402582DE9F041FFF720FEC0
:101B00002E482F4A016841F470010160106800F00E
:101B10000F00072804D2106820F00F00C01D1060CD
:101B200028490020274C10340B68274D43F001034F
:101B30000B6020600B682B400B60136803F00F03F1
:101B4000072B04D9136823F00F03DB1D13601D4C12
:101B50001E4A18341E4B261D371D2060194C1D4D82
:101B600028343060261D3860371D23603B1D3560EA
:101B70001C1D3A60251D2E1D1860331D2260286033
:101B8000326018600A680F4B134C22F480226033D5
:101B90000A60186020686FF30F00B0F1005F03D295
:101BA0000E490120C1F8080143F2D2000C49034B51
:101BB0004A03803B08601A60BDE8F08188ED00E0D0
:101BC00000200052004402587FEDF6EA8002010135
:101BD000000202020000FF010010005C00800051C2
:101BE000004000520000000001020304010203044F
:101BF00006070809141C000800000024C0010000AA
:101C0000D4020008281C0008C0010024F849000084
:101C10001003000801214201921008FD90D003003A
:081C200090D003038FE80300DC
:0200000490006A
:100000001FB509F07FFA9DE8030000F059F900F0F0
:1000100093F81FBD10B5002000F000F910BD00F0EE
:10002000BBF91146FFF7ECFF09F026F800F0F3F9F1
:1000300003B4FFF7EFFF03BC00F090F810B5002009
:1000400000F00DF9FFF7E6FFBDE81040012000F0D9
:1000500085B82DE9F041074615460E46102000F000
:1000600087F804000AD06760C4E9026500F07CF8F4
:100070000168216004600020BDE8F0810120FBE7F9
:1000800010B5203AC0F00B80B1E81850203AA0E833
:100090001850B1E81850A0E81850BFF4F5AF5FEA67
:1000A000027C24BFB1E81850A0E8185044BF18C91A
:1000B00018C0BDE810405FEA827C24BF51F8043BC1
:1000C00040F8043B08BF7047D20728BF31F8023B15
:1000D00048BF11F8012B28BF20F8023B48BF00F8A9
:1000E000012B70474FF0000200B513469446964628
:1000F000203922BFA0E80C50A0E80C50B1F120013B
:10010000BFF4F7AF090728BFA0E80C5048BF0CC0E8
:100110005DF804EB890028BF40F8042B08BF704746
:1001200048BF20F8022B11F0804F18BF00F8012BB8
:10013000704770477047704770B5064C7C44064D59
:100140007D4403E0206820448047241DAC42F9D15F
:1001500070BD000014EB0A0020EB0A0001491820D2
:10016000ABBEFEE7260002000048704718110024CD
:1001700070B5064600F088F8056806F10B0020F01F
:100180000704B4429CBF002070BD2B466A68BAB118
:100190001068A04210D304F1080188423CBF5068A7
:1001A000586007D35168101941601168091B01603C
:1001B00058601460101D70BD13465268002AE7D1C4
:1001C0002146284600F068F80028DED170BD70B5E1
:1001D0000446051F00F058F80068002C14BF44685E
:1001E00070BD002C18BFAC423CBF20466468F8D3F9
:1001F00001680A18AA4218BF456003D12A6805465B
:100200001144016028684119A1421CBF6C6070BD97
:100210006168696021680844286070BD2DE9F0417B
:100220000646FFF7A1FF8046454613E016B1E06899
:10023000B0420ED120682860D4E90101D8F80070DE
:1002400088472046FFF7C3FFD8F80000B842EBD13B
:1002500000E025462C68002CE8D1BDE8F08110B5FF
:1002600000F06AF8BDE8104000F060B810B500F08A
:100270007BF8BDE8104000F059B800000048704716
:10028000E01000247047000000487047E810002488
:10029000704770477047704738B504460A460020DB
:1002A0006946AFF30080002808BF38BD02460099B8
:1002B000204600F096F8012038BD012000F0CDB8AE
:1002C000F8B5AFF30080054600200C46102000BFB3
:1002D0000646A819A0420DD9324669460020AFF360
:1002E0000080070008BF00F0B8F80098A04218BFCF
:1002F0000546C419FFF7C8FF05600746F01D20F04A
:1003000007004619284600F00AF8B44208BFF8BDB5
:10031000A21B31463868BDE8F84000F062B8002101
:100320000160C0E90110704710207047002801D01B
:10033000FFF714BF7047000010B5002102A000F0C5
:1003400073F8012010BD0000534947414252543A0E
:100350002041626E6F726D616C207465726D696EA2
:100360006174696F6E00000010B5002102A000F0FA
:100370005BF8012010BD00005349475056464E3AE5
:100380002050757265207669727475616C20666E96
:100390002063616C6C6564007546FFF76FFFAE46C5
:1003A00005006946534620F00700854618B020B581
:1003B00000F08AF8BDE820404FF000064FF000073B
:1003C0004FF000084FF0000B21F00701AC46ACE8FD
:1003D000C009ACE8C009ACE8C009ACE8C0098D466A
:1003E0007047034640688C46002818BF88423CBFCF
:1003F00003464068F8D318681844884207D00CF1C7
:10040000030020F00700001D411A521A0146081D82
:100410000A60FFF7DCBE10B50446AFF3008020464B
:10042000BDE81040FFF704BE70B505460C460A2033
:1004300000E06D1C00F018F835B128780028F8D1DC
:1004400002E0641C00F010F814B120780028F8D104
:10045000BDE870400A2000F007B810B500F00CF8B5
:10046000BDE81040FFF762BF08B569468DF800008F
:100470000320ABBE08BD000010B5012805D0002147
:1004800003A0FFF7D1FF012010BD09A1F8E700008C
:1004900053494752544D454D3A204F7574206F666D
:1004A0002068656170206D656D6F727900000000D5
:1004B0003A2048656170206D656D6F727920636FB9
:1004C000727275707465640040F2493CC0F6000CAD
:1004D000604740F2D15CC0F6000C604740F2953CAA
:1004E000C0F6000C604741F2011CC0F6000C6047EA
:1004F00040F2C55CC0F6000C604741F2392CC0F6F2
:10050000000C604740F6A56CC0F6000C6047FEE7A3
:100510001D4A30B5136823F0010313601B4A1368AA
:10052000C3F30B140123A4F54065243D06D01268E3
:10053000C2F30B12A2F54064273C10D1144A126892
:100540006AB9144A14684FF08A45B5EB045F11D0BC
:100550001268C2F30B02A2F58064833C0AD00E4AF3
:1005600093609368002BFCD110601068884209D01A
:10057000002030BD094A13601368002BFCD1074AE4
:10058000083AF1E7012030BD002000E000ED00E076
:10059000002004E00010005C00300240084C0258CB
:1005A000014800F08DB90000E4010024704772B6E4
:1005B000FEE7F0B5D1E90843CD690A68C2B1026827
:1005C000254322F4F84213431D430560D1E9012578
:1005D000D1E903364C692A434568334389691A4394
:1005E000EB0B2243DB030A431A4342600020F0BDB9
:1005F000D1E9012ED1E9036CD1E9057142EA0E027D
:1006000046EA0C0632433A430A4301682A4322432E
:100610001A436FF30E010A430260E7E7426943F6AB
:10062000FE739A4342EA410141610020704770B570
:1006300091E81C00C9686FF01F0506691A4305EBB5
:10064000441444EA41210A4306EA45431A4302613D
:10065000002070BD2DE9F04F8B8A6FF00F05264CFE
:100660004FF07F4BD1F80C9004EB03536FF0FF0475
:100670004FEA042A1AB386684FEA09321F4FA2F5DF
:1006800080521A433E4032438260D1E900278E688F
:10069000521E05EB07150F8A2A43C56804EB062492
:1006A0000E7E0AEB074322431A430BEB06610A4313
:1006B00005F070431A43C2600020BDE8F08F91E856
:1006C00004110F4E521E0F8A05EB08152A4304EB46
:1006D0000C2C06EB09350E7E42EA0C022A43856893
:1006E0000AEB074422431A430BEB06610A4305F069
:1006F00070431A438260DFE70000F0FFFF0F0FFF37
:1007000000F0FFFFF0B50126044600201E2301E0A3
:100710005B1E05D303F01F0706FA07F50D42F7D05D
:1007200072B1082A0AD0102A05D0182A01D1072B45
:1007300006D30120F0BD082BFBD201E0102BF8D22C
:100740002368596121688B6823F0180313438B6079
:10075000F0BD000010B5040010D0607F20B900206B
:100760002077204600F032F821790220607739B1F5
:10077000D4E902122046FFF7C5FF48B1012010BDA1
:100780002168114848612068816821F01801816062
:100790006079A0B12168206908610122206863693D
:1007A000816821F06001194381602068A369816834
:1007B00021F08001194381606277002010BD21681B
:1007C0004FF0FF30E8E70000B71DC10408B500682E
:1007D0000649884208D10648016841F400210160B9
:1007E000006800F40020009008BD0000004C025892
:1007F000E044025870470000F0B590F86020012AEC
:1008000022D0C1EBC102012780F86070022380F87A
:10081000613000EB8202284D138F168EB2F83CC077
:10082000D46A1B05283244EA064643EA4C530A2C94
:1008300046EA03060AD0092C08D0137B46EA036374
:1008400049B10B2C1AD01DE00220F0BDD36803F093
:100850007F433343F4E701684C6AAC431C434C626A
:10086000016813688B6151680A2901D009291BD1DD
:10087000D168026821F07F41916215E0118B0F4D24
:1008800043EA81430168CC69AC431C43CC610168F5
:1008900013680B6151680A2901D0092904D1D16874
:1008A000026821F07F411162002180F8617080F8B8
:1008B00060100846F0BD00000F0033FF0F003FFF3F
:1008C0002DE9F0470446006800274FF004084FF078
:1008D000010946680568F10714D0E90512D50368D7
:1008E00023F480730360606E40F00100606620684E
:1008F000C0F8089084F8618084F86070616A09B17A
:1009000020468847B00615D5A80413D520682022B4
:10091000036823F40053036020688260606E40F037
:100920000200606684F8618084F86070616A09B1D1
:1009300020468847300715D5280513D5206808229A
:10094000036823F40063036020688260606E40F0F7
:100950000400606684F8618084F86070616A09B19F
:100960002046884770070CD568050AD520680268BC
:1009700022F4806202602068C0F80880204600F0FF
:1009800071F8B00713D5A80511D5206802220368B5
:1009900023F40073036020688260606E606684F8F0
:1009A000619084F86070216A09B120468847F0069A
:1009B00012D5E80410D52068016821F48051016047
:1009C000226810219160616E616684F86190204612
:1009D00084F86070FFF70EFFBDE8F0872DE9F04165
:1009E000040004D094F86100002518B107E001204C
:1009F000BDE8F081204684F8605000F035F8184ECC
:100A0000022084F861000123D4E90010D4F81CC04E
:100A100040F207120F6840EA0C0037403843086084
:100A20002068A769A168466B394396433143416307
:100A30002068E268016C6FF30F01114301642068C4
:100A4000218AA28A466B090541EA425126F44012E6
:100A500011434163656684F861300020C8E70000F7
:100A6000BFFFF8FF7047000008B500680B498842D7
:100A700012D10B48016841F01001016000680022AA
:100A8000114600F0100000905A2000F0FBFABDE87B
:100A900008405A2000F0E8BA08BD000000100052DB
:100AA000D444025870B5044600F09CF80546601C1A
:100AB00002D004480078044400F094F8401BA0429F
:100AC000FAD370BD20000024F0B5B5B014216846FB
:100AD000FFF708FB37480168002968D10121016050
:100AE000BC2105A8FFF7FEFA4FF0807005900024A6
:100AF000169405A8FFF7EDFC08B1FFF758FD2E4846
:100B0000016841F4805101600068022502AA69462B
:100B100000F48050349040F2FF60CDE900050326D8
:100B200026480C2782E8D000FFF7D8FC02AA4FF62F
:100B30008370CDE900052248694682E8D000FFF7BE
:100B4000CDFC4FF47F40694602AACDE900051D485F
:100B500082E8D000FFF7C2FC02AA48F23710CDE9C4
:100B600000051948694682E8D000FFF7B7FC02AAE1
:100B70004CF20370CDE900051448694682E8D000C4
:100B8000FFF7ACFC02AA4FF63F00CDE90005104884
:100B9000694682E8D000FFF7A1FC0D20694602AA51
:100BA000CDE900050B4882E8D000FFF797FC35B08F
:100BB000F0BD000000000024D44402580020025878
:100BC00000100258001C025800180258000C02586D
:100BD000001402580008025801480068000C7047D1
:100BE0000010005C0148806870470000200000246D
:100BF0000248816802781144816070472000002417
:100C0000032010B500F05EFAFFF76DFC0F4A1049A3
:100C100014681368C4F3032203F00F038A5CC95CF1
:100C200002F01F0201F01F01D0400A4A20FA01F130
:100C3000116009490860002000F010F808B1012097
:100C400010BD00F003FA002010BD00001844025847
:100C5000E41B0008300000242C00002470B50D4D6A
:100C600004462878A0B14FF47A71B1FBF0F00A493C
:100C70000968B1FBF0F000F0C1FA48B9102C07D2B6
:100C800000222146501E00F0FDF900206C6070BD6E
:100C9000012070BD200000242C0000242DE9F0412B
:100CA000044690F8A00016460F4601281DD00125E5
:100CB00084F8A050022084F8A10006EB860000EB27
:100CC000C600342204EB80003830FFF7D9F93246F1
:100CD0003946204600F0ACFA216800204D6284F8C5
:100CE000A15084F8A000BDE8F0810220FBE7704726
:100CF0002DE9F0410446006800274FF00408856B99
:100D0000466B690715D5710713D5426B22F00402B3
:100D100042632068C0F83C80D4F8A40040F0010091
:100D2000C4F8A40084F8A180204684F8A070FFF7DE
:100D3000DEFFA80716D5B00714D520680222436B42
:100D400023F0020343632068C263D4F8A40040F098
:100D50000200C4F8A40084F8A180204684F8A070A2
:100D6000FFF7C5FF05EA06004FF00108C0070ED0E7
:100D700021684A6B22F001024A632168C1F83C8075
:100D800084F8A180204684F8A07000F091F828072C
:100D900010D530070ED520680822436B23F00803D6
:100DA00043632068C26384F8A180204684F8A07061
:100DB00000F04AF9BDE8F0812DE9F041040004D0CB
:100DC00094F8A100002518B107E00120BDE8F081EA
:100DD000204684F8A05000F097F83448022184F8A7
:100DE000A110012202CC8B6923F070438B6194E83F
:100DF0004A001943E3681E4354F8043D31439E6999
:100E00003143996121688B6803408B602168A68A11
:100E1000A7698B683B4343EA06438B602168CB6834
:100E20000340CB602168A38B276ACE683E4346EA25
:100E30000346CE6021680B6903400B612368A68CD2
:100E4000A76A1969394341EA0641196121684B696A
:100E500003404B612068A38D266B4169314341EA11
:100E600003414161236894F8351094F83600DE6A36
:100E7000000406F07F46DE62236840EA012094F811
:100E80003460D96A31430143D9622068416B41F033
:100E9000060141632068816941F001018161C4F864
:100EA000A45084F8A120002090E7000000F800F092
:100EB000124910B5124A134C0B6C11888B4212D197
:100EC000518800F09FF8206890F86610491C80F85F
:100ED000661001F0A5FC206803F02AFCBDE8104074
:100EE000002003F0C3BF00F08DF8002003F0BFFF27
:100EF000206801688969BDE810400847001000506B
:100F000014000024A4010024F0B5B5B00446142157
:100F10002FA8FFF7E7F8BC216846FFF7E3F834494C
:100F20002068884262D109AE022540040090012168
:100F30006846042286E8260000240C954FF440639E
:100F40000D951094CDE90E34FFF7C3FA08B1FFF701
:100F50002EFB2848016841F008010160006800F09C
:100F6000080034902348001F016841F4806101604B
:100F7000016801F480613491016841F400710160FD
:100F8000016801F400713491016841F480710160DD
:100F9000006831AA032600F480703490FF20CDE968
:100FA0002F050E27144882E8D0002FA9FFF796FAE4
:100FB00031AA4FF6FF70CDE92F0510482FA982E81E
:100FC000D000FFF78BFA4FF4704031AACDE92F051E
:100FD0000B482FA982E8D000FFF780FA00225820A2
:100FE000114600F04FF8582000F03EF835B0F0BD43
:100FF00000100050E444025800280258002402580F
:101000000020025870B590F8A020012A18D00D4D8C
:10101000012380F8A030022280F8A120002450F89B
:10102000A02B566B26F001065663296450F8A01CCD
:101030004A6B42F001024A6343700470204670BD5F
:10104000022070BD0010005070470000054808B530
:10105000016841F002010160006800F002000090A8
:1010600008BD0000F4440258002809DB410900F0E3
:101070001F028900012001F1E0219040C1F8000128
:10108000704700000E4BF0B41B680D46C3F30223FB
:10109000C3F10706042E00D90426191D072901D221
:1010A000002300E0DB1E012404FA06F19C40491EE7
:1010B0002940641E994014402143F0BC07F041BF11
:1010C0000CED00E0064900F0070210B54FF6FF04F2
:1010D0000868044B204040EA02201843086010BD15
:1010E0000CED00E00000FA05134970B50A68D24320
:1010F000520705D5096801F00701814213D118E0B4
:101100000A6822F0070202430A60FFF76BFD0A4DEE
:101110004FF47A760446083D07E000BFFFF762FD12
:10112000001BB04201D9012070BD2868C043800473
:10113000F4D4002070BD00000C48025870B50400C3
:101140000D4603D094F82C0010B107E0012070BDCB
:10115000002084F82D00204600F018F8022084F8C2
:101160002C002068211DFFF724FAD4E9000229464B
:10117000FFF770FA04480121026842F00042026061
:1011800084F82C10002070BD00400052FFF79CBC7A
:1011900010B5044690F82C00022804D094F82C00D6
:1011A000012801D0012010BD022084F82C00206805
:1011B000FFF734FA012084F82C00002010BD000055
:1011C00070B5044690F82C000D46022804D0012882
:1011D00003D0052801D0012070BD022084F82C0026
:1011E0002068FFF724FA2868022805D05FF0010084
:1011F00084F82C00002070BD0520F9E7401EB0F1F6
:10120000807F10B501D3012010BD4FF0E024606154
:101210000F21601707F095FE0020A06107212161D2
:1012200010BDFEE70148FFF763BD00008002002407
:101230002DE9FE4F81460068882493468D888C22D4
:1012400004EBCB178A46C3689421BE46C459C3F346
:101250000B432B4404F470441F04019702EBCB12A0
:1012600040F80E4001EBCB13DAF800709C214FF0F0
:10127000AC0C01EBCB1440F2077102910CEBCB11DB
:10128000D9F800C098250020CDF800C0A02605EBB5
:10129000CB15DCF80CC006EBCB16CCF30B4C0CF1E9
:1012A000010C07EB0C08DDF800C0019F48EA0708B5
:1012B0004CF80E80D9F80070BAF80CC0B846FF6838
:1012C000C7F30A0767444FEA074E58F8027007F45D
:1012D000704C48F802C0D9F800C0DAF80870DCF8A1
:1012E0000C80C8F30A0808F10108B84448EA0E085F
:1012F0004CF80280D9F80020D75827F00707D750BC
:10130000D9F80070DAF81020FA509AF831209AF8DB
:1013100018304FEA022C9AF83220120442EA036293
:10132000D9F800301F5918519AF8303043EA0C03AD
:101330001343D9F800201351D9F80020535923F052
:10134000FF035351D9F80020DAF814305351D9F87B
:1013500000209359029CA3439351D9F80030DAE955
:10136000072422439A51D9F8002053585050D9F8F5
:101370000020DAF824005050DAF81000C8B3012831
:101380003AD004283AD0022838D0032836D007288B
:1013900034D00120D9F80030B02505EBCB11B422B0
:1013A00084245D5802EBCB1205F0E0255D50DAE9AC
:1013B000003504EBCB14EB1ABAF8285043434543ED
:1013C000D9F80000DB1D43EA05434350D9F800007B
:1013D00081586FF30A018150D9F80000DAF82C1017
:1013E0008150D9F80000015941F001010151BDE8D7
:1013F000FE8FFFE70420CDE70320CBE70220C9E7FB
:101400000A480021084B012210B5036001714171A7
:10141000416102628161FFF79DF9002803D0BDE8B8
:101420001040FFF7C4B810BD004C0258C0010024A2
:10143000104800210E4A10B5C0E900218160C1604A
:1014400041648164C164016541658165C165FFF7DF
:10145000C5FA08B1FFF7ABF806480121FFF7CCF950
:10146000002803D0BDE81040FFF7A1B810BD000070
:1014700000100052E4010024F0B587B01C2168463A
:10148000FEF730FE164800270821144E01244FF0C5
:10149000400E2025C0E90067C0E9024105618D02C8
:1014A0000E024C024FF4C07CC0E909450623C0E996
:1014B0000776C0E905EC02220092CDE901130393FF
:1014C000CDE9041269460692FFF738FE08B1FFF72E
:1014D0006EF8034800F0D0F807B0F0BD404100526C
:1014E0004C02002410B586B014216846FEF7FAFDC0
:1014F0003148016841F480710160016801F4807134
:101500000591016841F002010160016801F00201EA
:101510000591016841F480610160016801F4806116
:101520000591016841F010010160016801F01001AE
:101530000591016841F400710160016801F40071D6
:101540000591016841F080010160016801F08001AE
:101550000591016841F040010160016801F040011E
:101560000591016841F008010160016801F008017E
:101570000591016841F020010160016801F020013E
:101580000591016841F004010160006801220B4CE3
:10159000202100F0040005902046FEF7A9FF01215C
:1015A00003222020CDE90001CDE902126946204640
:1015B000FEF794FF06B010BDE04402580004025844
:1015C000F0B58DB034216846FEF78CFD2548002427
:1015D000234B2E2100F11C0C40F2F715172240F28C
:1015E0000D27C0E9003484604FF48466C46040F283
:1015F0004E330461446184618CE8EE0080F834402D
:1016000080F8354080F83640FFF7D6FB08B1FEF78A
:10161000CEFF4FF448704FF4F07102270497CDE9E4
:101620000040CDE90A0107A87A0205234D06CDE95D
:10163000024180E82C00FF260A48CDE905648DF8B8
:10164000304000228DF8314069468DF83240FFF776
:1016500025FB002801D0FEF7AAFF0DB0F0BD000069
:10166000001000508002002407F05CBD07F096BD1A
:10167000FEE7FEE7704700000023012218461146EE
:1016800010B500F01FF80120FFF70CFA002301222B
:101690001846022100F016F80023082218460321FC
:1016A00000F010F8012240F222230421002000F073
:1016B00009F8BDE81040024840F2A521FFF768BDD7
:1016C0004C0200241FB54FF0000410B1012802D0D5
:1016D00002E0102400E008240748CDE902234FF679
:1016E000FF72CDE900146946FFF76AFD002800D0BB
:1016F000012004B010BD00004C0200247047FFF729
:1017000077BA000070B59CB04C216846FEF7EAFC41
:10171000202113A8FEF7E6FC0220FFF7E5FC244891
:1017200000242449026842F44042026002680A68C8
:1017300042F001020A60096801F001011B91016891
:10174000C9438904FBD41C4902200A6840250123AF
:10175000042622F003020A600DF1240C00903C21C3
:101760000C228CE85100CDE90C100FA90E9081E8F5
:10177000150012946846CDE90335FEF7BEFE08B1A8
:1017800072B6FEE708221A95CDE91625D30113AAF1
:101790003F200321CDE9185382E81300042113A848
:1017A000FEF7B0FE002801D072B6FEE71CB070BD97
:1017B000184802582C04005828440258FEE7002814
:1017C00009DB410900F01F028900012001F1E0213D
:1017D0009040C1F80001704700280DDB410900F07E
:1017E0001F028900012001F1E0219040C1F8800131
:1017F000BFF34F8FBFF36F8F7047090700284FEA81
:10180000116104DB00F1E02080F80014704700F063
:101810000F0000F1E02080F8141D704702480068B6
:101820004068016849690847A4010024144800B5CC
:101830008BB00078C0071FD1114807F0A5FBD8B1C5
:101840003F2210490020099008900A23CDE9061292
:101850000D490122CDE90220CDE904010421CDE9A1
:1018600000010A490A4801F0ABFF0A4A0A49FEF79B
:10187000F0FB0348AFF300800BB0054800BD00004B
:10188000340000243CEC0A90349500900CEC0A9053
:101890003C1000240000000805380090144800B5F2
:1018A0008BB00078C0071FD1114807F06DFBD8B18D
:1018B0003F2210490020099008901423CDE9061218
:1018C0000D490122CDE90220CDE904010421CDE931
:1018D00000010A490A4801F073FF0A4A0A49FEF763
:1018E000B8FB0348AFF300800BB0054800BD000013
:1018F0003800002440EC0A90389500901CEC0A90C7
:10190000601000240000000805380090144800B55D
:101910008BB00078C0071FD1114807F035FBD8B154
:101920003F2210490020099008902823CDE9061293
:101930000D490122CDE90220CDE904010421CDE9C0
:1019400000010A490A4801F03BFF0A4A0A49FEF72A
:1019500080FB0348AFF300800BB0054800BD0000DA
:101960003C00002444EC0A903C9500902CEC0A903A
:101970008410002400000008053800900120704702
:101980000E4808B5016841F010010160006800F0E0
:101990001000009009485838016841F010010160BA
:1019A000016821F0100101600649054808624FF006
:1019B00080600549C1F8000108BD0000D444025808
:1019C0001D180090E401002408E000E040F2EF1050
:1019D000704700002DE9F0470C46497F074600F0AC
:1019E0001EF9A17F0646384600F019F9A17F054689
:1019F000384600F028F955490746E28A4FF6107834
:101A0000238A5348D21A0A64E28A6FF0FF0C238AB1
:101A1000D21A8A61A28A4FF01009238AD21A0A6167
:101A20004F6322694FEA32424A64E268CA636268DD
:101A3000CA602268402A67D004DC042A2DD0202AFC
:101A400005D161E0802A0ED0B2F5807F0ED0207FD4
:101A500046EA006040F40030C861607F0B285AD02D
:101A600040F201204DE0227F3A4B02E0394B227FC9
:101A70005B1E03EB0262CA61228B02F4784302F41C
:101A8000FC661B0202F01F0243EA461343EAC2024D
:101A90000A624D62E2684A6133E0227F46EA0262EE
:101AA00042F40032CA614D62E2684A61627F0B2AE9
:101AB00027D1A268131DCB62137813F0FF0303D064
:101AC000012B09D0FEF7BAFA5388CA6922EA080244
:101AD0000CEB03231A4308E05388CA6922EA080280
:101AE0000CEB03231A4342F01002CA61CA6942F0A8
:101AF0002002CA6100E000BFCA699206FBD4C1F8A7
:101B000008900860BDE8F087227F46EA026242F44E
:101B10000032CA61BDE7A068021DCA62CA69408876
:101B200022EA08020CEB0020024342F01000C861D8
:101B3000C86940F02000C86100E000BFC8698006A5
:101B4000FBD4054AC1F808900A60DBE70010005298
:101B5000010202000A0002000102010070B50C46F9
:101B6000897F00F070F82849486322694FEA3242C1
:101B70004A64E268CA63E28A238AD21A0A64226843
:101B8000082A17D00022C8610A61A07FC0B3208B49
:101B9000227F00F478431B0243EA026200F4FC63F4
:101BA00000F01F0042EA431242EAC000886317486F
:101BB000086070BDE38A258A154A5B1B8B61E38A46
:101BC000258A5B1B0B614862207F02EB0060C861C5
:101BD000208B227F00F478431B0243EA026200F468
:101BE000FC6300F01F0042EA431242EAC00020F00A
:101BF0007F4008620748E2684A61E268CA60D7E746
:101C0000FFE7A069D2E700000010005201020300C4
:101C100009000100010202000168896A08470020EA
:101C20000C2910B50DD2DFE801F00806070C0C0CEA
:101C30000C0A0A0A0A0A012010BD022010BD052064
:101C400010BDFEF7FBF900200B2910B50BD2DFE821
:101C500001F00806070A0A0A0A060606060001201D
:101C600010BD022010BDFEF7E9F9000010B500F12B
:101C70000C014160002202720B4642720749602249
:101C8000016000F12001184602F038FA044960238F
:101C90002022143007F066F9203810BD949500908A
:101CA0009D510090064A054901604FF08061C2F8DD
:101CB0008011BFF34F8FBFF36F8F704794950090E3
:101CC00008E000E000F07EB87047000010B500F0BA
:101CD0007BF80149016010BDE49500909821024A0B
:101CE0000A50024901607047549A009098A10090F0
:101CF00000F04EBC00F0A2BC00F0AABC00F0CCBCCE
:101D000000F0E4BC00F0EABC00F0F4BC00F00ABD56
:101D10007047000070B5061D43F20431451843F2C8
:101D20001C340319036100F12C0200F1140186E850
:101D30002600114A0260084602F08AF90F4940F86D
:101D4000181B02F085F90E49016043F2D8210844BE
:101D500002F07EF90B49251F40F8141B00F049FDE5
:101D6000401B41190246204400F0E4FB051B2819E2
:101D700000F0DCFC284670BDD496009074A600905C
:101D800040A60090A8A600900A4910B5016043F251
:101D90001C31084400F026FD183802F061F9A0F566
:101DA0004850D83802F05CF9183802F059F9143864
:101DB00010BD0000D4960090004870471095009028
:101DC00001207047704700002DE9FC4703F0A6FE94
:101DD000FD490025C56340F8401B02F021FC2C3072
:101DE00002F01EFC00F5BA7264212C3002F0FAFAFF
:101DF000F649016000F5367001F044FEFF222946E5
:101E0000383001F05FFD1C304FF6FF772621044685
:101E100001AEADF80470FEF765F9204603F0D8FE78
:101E20000446EB4831462060FF20E78484F8280010
:101E3000204603F0EFF804F12C0042F6E061A4F52F
:101E4000717402F071F900224FF44878114604F1E0
:101E5000400043464FF4F0760746009604F078FAC7
:101E600000221146104603F0BDF80022B86204F1CA
:101E70006C00434611460096064604F069FAFF22BC
:101E80001146104603F0AEF8B06204F1980001214B
:101E9000824602F08CFBF0200090672201464FF44E
:101EA000A073504604F054FA002350461A461946CF
:101EB000009501F061FF002350461A46194600952F
:101EC00001F0A2FF64225046002102F030FB04F52D
:101ED0005C700121814602F01BF9C5229721142074
:101EE00003F080F8014604F56A70804601F0DEFCDC
:101EF0004146484601F07CFB0221484601F045FD81
:101F00004946504601F0D3FE9FEDB20A504602F01A
:101F1000DFFA9FEDB10A504602F0DAFA9FEDAF0A00
:101F2000504602F0D5FA9FEDAE0A504602F0D0FAC4
:101F30009FEDAC0A504602F0CBFA9FEDAB0A50463B
:101F400002F0C6FA9FEDA90A504602F0C1FA9FEDD1
:101F5000A80A504602F0BCFA9FEDA60A504602F0CD
:101F6000B7FA9FEDA50A504602F0B2FA9FEDA30A18
:101F7000504602F0ADFA9FEDA20A504602F0A8FAD0
:101F80009FEDA00A504602F0A3FA9FED9F0A50462B
:101F900002F09EFA9FED9D0A504602F099FA9FEDDD
:101FA0009C0A504602F094FA9FED9A0A504602F0BD
:101FB0008FFA9FED990A504602F08AFA9FED970A30
:101FC000504602F085FA9FED960A504602F080FADC
:101FD0009FED940A504602F07BFA9FED930A50461B
:101FE00002F076FA9FED910A504602F071FA9FEDE9
:101FF000900A504602F06CFA9FED8E0A504602F0AD
:1020000067FA9FED8D0A504602F062FA9FED8B0A47
:10201000504602F05DFA9FED8A0A504602F058FAE7
:102020009FED880A504602F053FA9FED870A50460A
:1020300002F04EFA9FED850A504602F049FA9FEDF4
:10204000840A504602F044FA9FED820A504602F09C
:102050003FFA9FED810A504602F03AFA9FED7F0A5F
:10206000504602F035FA9FED7E0A504602F030FAF3
:102070009FED7C0A504602F02BFA9FED7B0A5046FA
:1020800002F026FA9FED790A504602F021FA9FED00
:10209000780A504602F01CFA9FED760A504602F08C
:1020A00017FA9FED750A504602F012FA9FED730A77
:1020B000504602F00DFA9FED720A504602F008FAFF
:1020C0009FED700A504602F003FA9FED6F0A5046EA
:1020D00002F0FEF99FED6D0A504602F0F9F99FED0E
:1020E0006C0A504602F0F4F99FED6A0A504602F07D
:1020F000EFF99FED690A504602F0EAF99FED670A91
:10210000504602F0E5F99FED660A504602F0E0F90C
:102110009FED640A504602F0DBF99FED630A5046DA
:1021200002F0D6F99FED610A504602F0D1F99FED19
:10213000600A504602F0CCF99FED5E0A504602F06C
:10214000C7F99FED5D0A504602F0C2F99FED5B0AA8
:10215000504602F0BDF99FED5A0A504602F0B8F918
:102160009FED580A504602F0B3F99FED570A5046CA
:1021700002F0AEF99FED550A504602F0A9F99FED25
:10218000540A504602F0A4F99FED520A504602F05C
:102190009FF99FED510A504602F09AF99FED4F0AC0
:1021A000504602F095F99FED4E0A504602F090F924
:1021B0009FED4C0A504602F08BF99FED4B0A5046BA
:1021C00002F086F992E00000E8960090789B00907B
:1021D00020A10090C2A9A14264718C4292806E42FB
:1021E000C9294F422B5642424D264A42A2E862423A
:1021F00091098242EA399142EB86994229F7964247
:102200002723884233445D4201761D4298B2B9418A
:10221000F942204127CA1640A7E2CF3F9594F640E5
:1022200076259841DE9C03420F163942DA646142FA
:10223000A0547542053E7342AC4D5F422D59424257
:10224000068D2742968619426A911F429CB63B42F0
:1022500059196A420AE59042F36EAB42FCA3BE42B2
:1022600096E1C542DE0ABF428410AB425BBD8D429F
:10227000C4A7594276671D42946DE3414D8CBA4123
:10228000FFFDC141E4E8EF41F3C01842CDF9374208
:10229000461D4B425C424B429CE036427D3F12421F
:1022A000DAE2CC4195687C412A2F1E417CC01F4157
:1022B000D6608641A240EC410121384235167D426C
:1022C000F8199C426C7BAF4261C7B542BC12AF4269
:1022D000B7599E4205B788423F336842B5944B4296
:1022E0008B3C4242184F4D420E2F68429FED5B0AD5
:1022F000504602F0EDF89FED5A0A504602F0E8F819
:102300009FED580A504602F0E3F89FED570A5046F9
:1023100002F0DEF89FED550A504602F0D9F89FED25
:10232000540A504602F0D4F89FED520A504602F08B
:10233000CFF89FED510A504602F0CAF89FED4F0AC0
:10234000504602F0C5F89FED4E0A504602F0C0F824
:102350009FED4C0A504602F0BBF89FED4B0A5046E9
:1023600002F0B6F89FED490A504602F0B1F89FED31
:10237000480A504602F0ACF89FED460A504602F07B
:10238000A7F89FED450A504602F0A2F89FED430AD8
:10239000504602F09DF89FED420A504602F098F830
:1023A0009FED400A504602F093F89FED3F0A5046D9
:1023B00002F08EF89FED3D0A504602F089F89FED3D
:1023C0003C0A504602F084F89FED3A0A504602F06B
:1023D0007FF89FED390A504602F07AF89FED370AF0
:1023E000504602F075F89FED360A504602F070F83C
:1023F0009FED340A504602F06BF89FED330A5046C9
:1024000002F066F89FED310A504602F061F89FED48
:10241000300A504602F05CF80C22182104F5717065
:1024200003F0FBFF01A9ADF8045004F5717002F050
:10243000F1FD3946204603F025FA3146204603F0E7
:1024400021FA5146204603F01DFA04F57171204629
:1024500003F018FA2046BDE8FC8700000ED984423C
:10246000E53C93422EEE99420653954241828442C6
:10247000AA225342F04C124265A4A541D5920441D0
:10248000A4B3DD3F6E8F0C4006DD1441F40BAA416E
:1024900021150D429C0A41425E4A6642DB79764232
:1024A00007F2704271C65A421E613D42C50B24427A
:1024B0009502194283C92242046D42422F1D734284
:1024C000B49E9542A053AF42E1C9C042B0BAC542E2
:1024D000FE87BC42054910B540F8981B01F0C2FDCB
:1024E000BDE81040983802F05DBD0000E89600900D
:1024F00070477047044A0023836002F11803C160EB
:10250000C0E90023704700001C970090704701202D
:102510007047000000487047A810002410B504461A
:10252000D0F8540100F064F92046BDE8104000F0F6
:10253000D9BC000010B500F019F90149016010BDC7
:102540004497009000207047704770470E49002064
:1025500070B50860BFF34F8F081F43F6FF73006824
:102560000A4DC0F34E31C0F3C90203EA41141046CC
:1025700044EA80762E60401EFAD2491EF5D2BFF39F
:102580004F8FBFF36F8F70BD84ED00E074EF00E0FC
:1025900070B5044602F068F800F088F9014620683A
:1025A000C26C2046904712480125A0632068D0F8ED
:1025B000801020468847A0F57F41FF3904D00D48A0
:1025C000007808B984F848502068816E2046884712
:1025D0002068016E20468847206800234FF0404164
:1025E0001A46056F2046A847012084F84A0070BDAE
:1025F00075280090950100240E49002070B50860F0
:10260000BFF34F8F081F43F6FF7300680A4DC0F3F6
:102610004E31C0F3C90203EA4114104644EA807601
:102620002E60401EFAD2491EF5D2BFF34F8FBFF382
:102630006F8F70BD84ED00E074EF00E05A2010B59C
:10264000FFF7BDF8BDE810405820FFF7B8B800000C
:1026500070B502F067F80E4900200860BFF34F8F95
:10266000081F43F6FF7300680A4DC0F34E31C0F3F4
:10267000C90203EA4114104644EA80762E60401EE7
:10268000FAD2491EF5D2BFF34F8FBFF36F8F70BDE3
:1026900084ED00E074EF00E05A2010B5FFF79CF8DD
:1026A000BDE810405820FFF797B800000648426C7C
:1026B000C068C0F30A0190B2491C884201D20020D0
:1026C00000E0401A80B2704700100050024801221A
:1026D000C0F8AC10426270470010005009215A2027
:1026E00010B5FFF78AF80921BDE810405820FFF720
:1026F00084B8000009480A49C268C2F30A02521E9F
:1027000092B20A800369C3F30A035B1E4B80026422
:10271000416B41F00101416370470000001000501F
:102720001400002402F0E8BA70470000054A00F5E2
:10273000A071D2E90032CA60C1E90103C0F83C11BE
:10274000704700002495009008B5D0F85411054B4F
:10275000009100F59C71D0F85021034806F0D0FD9F
:1027600008BD000038010024340100242DE9F041A7
:1027700015460E4600F0FEFE074614481448002198
:10278000154AC7F83811C7F83C110760114838607E
:1027900007F5A070124CC0E90021104AD2E90212DC
:1027A000C0E90212C7E95456206801688A6800210E
:1027B0009047216891F8760008B1C86C00B9886824
:1027C00004F0BBFC3846BDE8F08100008099009021
:1027D0003C010024B497009040A200902495009002
:1027E000A40100240149016070470000B4970090E3
:1027F000704700210160704730B5044C039D0460B0
:102800000171C2800381458130BD0000F8970090BE
:102810000248002101604160704700001800002458
:1028200001490120486070471800002402484068B0
:10283000002800D001207047180000240149002022
:102840000860704718000024034801680029FCD183
:102850000121016070470000180000240149012097
:102860000860704718000024014900200860704784
:1028700018000024FEF716B990F84430002B01D15F
:1028800003F074BC704790F84430002B01D103F082
:102890009DBC704710B500F009F80168096BBDE8F0
:1028A0001040084741607047704770470148C06852
:1028B000704700003001002403484068002802D01F
:1028C0000268926A10477047300100242DE9F74FE3
:1028D00084B0814605A805F0A4FF00287ED109F147
:1028E000A805B9F8E8400AE0A0B205EBC00105A8C8
:1028F00005F0A3FF18B1A1B2284606F098FD641EAA
:10290000F2D5B9F8E8604FF0000AD046761E66D4DA
:10291000B0B205A905EBC004204605F0B3FF0028BE
:102920007AD0BDF91400B4F90010884232DB05A852
:1029300005F06DFF0746204605F069FF874229DC58
:10294000BDF91600B4F90210884212DB204605F0EA
:1029500063FFBDF91620BDF81A10801A00B2091ADB
:1029600009B2ADF81A10002938DD1044ADF8160090
:102970004DE005A805F050FF0746204605F04CFF46
:10298000874207DC6088BDF81610401A00B2ADF827
:102990001A003AE0BDF91600B4F90210884239DB9A
:1029A00005A805F039FF0746204605F035FF8742A8
:1029B00030DCBDF91400B4F90010884215DB204664
:1029C00005F025FFBDF91420BDF81810801A00B2DB
:1029D000091A09B2ADF81810002901E080E098E06A
:1029E0007EDD1044ADF8140011E005A805F00FFFDE
:1029F0000746204605F00BFF87420BDC2088BDF818
:102A00001410401A00B2ADF81800002868DD4FF02D
:102A1000010801E04FF0010A761E7FF579AFB8F1A9
:102A2000000F7FF46EAFBAF1000F72D0B9F8E86012
:102A30004FF00008761E6CD4B0B205A905EBC004B7
:102A4000204605F01FFF58B3BDF91400B4F900107B
:102A5000884226DC05A805F0DAFE0746204605F088
:102A6000D6FE87421DDBBDF91600B4F9021088427C
:102A700005A808DC05F0D0FE6188401A0144618099
:102A8000E188081A0BE005F0C7FE0746204605F06E
:102A9000C3FE874205DBBDF816006188401AE0805E
:102AA0002FE0BDF91600B4F90210884227DC05A812
:102AB00005F0B2FE0746204605F0AEFE87421EDB5B
:102AC000BDF91400B4F90010884205A809DC05F02E
:102AD0009EFE2188401A01442180A188081A0CE03A
:102AE00070E105F094FE0746204605F090FE87420F
:102AF00005DBBDF814002188401AA08001E04FF0EA
:102B00000108761E98D5B8F1000F8ED0B9F8E860AC
:102B10004CE14EE1B0B205EBC00405A8214605F03A
:102B20008CFE18B1B1B2284606F081FC05A92046FA
:102B300005F0A8FE0028EBD0BDF91400B4F9001090
:102B40008842BDF91600B4F902107DDD884233DDFC
:102B5000BDF816006188401A21880FFA80F8BDF888
:102B60001400401A06B205A805F051FE074620469B
:102B700005F04DFE391A05A801FB08FA05F04CFED8
:102B80000746204605F048FE381A7043504508DCD9
:102B9000A4F806802088ADF81400BDF81800304471
:102BA000D4E0A680BDF81A1001EB0800ADF81A00B9
:102BB0006088ADF8160094E605A805F028FE0746E3
:102BC000204605F024FE21888742BDF81400A0EBC2
:102BD00001000FFA80F8204625DD05F01DFE0646AF
:102BE00005A805F019FE301ABDF9161006B2B4F9A1
:102BF0000200411A05A801FB08FA05F008FE074685
:102C0000204605F004FE381A7043824508DC05A80A
:102C100005F002FE6080E6802088ADF8140091E0A7
:102C2000A4F804805EE005F0F2FD074605A805F073
:102C3000EEFD381A07B2B9F8E80007280EDAD4F822
:102C400000B0D4F804A000E01CE005A805F0DFFD0A
:102C500052462080A78068F30F02A3E0B8450EDC3F
:102C6000BDF818102088ADF8140001EB0800ADF88D
:102C7000180005A805F0CBFD2080A78031E6A4F858
:102C8000048026E0884231DA204605F0C0FD064681
:102C900005A805F0BCFD301A07B2204605F0BCFDC2
:102CA000064605A805F0B8FD301ABDF9161006B2A3
:102CB000B4F90200BDF91420411AB4F90000801AD9
:102CC00079437043814208DC05A8E68005F0A4FD45
:102CD0006080BDF81800384438E005A8A78005F0EA
:102CE00096FD2080BDF81A00304484E005A805F068
:102CF0008EFD0746204605F08AFD874233DA2046DE
:102D000005F085FD064605A805F081FD301A6188AD
:102D10000FFA80F8BDF81600401ABDF9141006B27B
:102D2000B4F90000411A05A801FB06FA05F074FD8C
:102D30000746204605F070FD381A00FB08F05045A4
:102D400007DCE680BDF8181001EB0800ADF81800AC
:102D5000C7E505A805F05BFD2080A4F80480608825
:102D6000ADF81600BEE7BDF816006188401A0FFAEC
:102D700080F8204605F050FD074605A805F04CFDFB
:102D8000381A07B2B9F8E80007281EDAD4F800B0FC
:102D900005A8D4F804A0E78005F03EFD5246608007
:102DA00068F31F425946284606F054FB761E7FF50D
:102DB000B1AEB9F8E860082E20D2DDE90512284648
:102DC00006F048FB07B0BDE8F08FB8450EDCBDF853
:102DD0001A106088ADF8160001EB0800ADF81A0073
:102DE00005A805F019FD6080E7807AE5A4F8068063
:102DF000BDF81A003844ADF81A0072E500274FF00C
:102E0000FF3A761E6FF0004B42D4B0B2741E05EB51
:102E1000C008B8F80410B8F8060011FB00F00290E2
:102E20002EE0002C03DBA0B205EBC00100E005A9F9
:102E30008888CA8810FB02F00390D8F8002000921E
:102E4000D8F804000190684602F013F8BDF80400B9
:102E5000BDF8061010FB01F1DDE902201044CA178D
:102E6000081A01EB5271B0EBE10F02DA3746A246C5
:102E70000BE0584503DA3746A24630B18346641E5C
:102E8000B4F1FF3FCDDA761EBFD5BAF1000F06DAF6
:102E9000B8B205EBC00105A801F0EBFF12E01FFA84
:102EA0008AF005EBC004B8B2214605EBC000064627
:102EB00001F0DFFF05982060069860603168059199
:102EC00070680690B9B2284606F0B1FA09E500002C
:102ED00003484068002802D00268D2691047704752
:102EE000300100242DE9F041374D0446A86808B1AF
:102EF000017A19B194F8351131B114E0002184F848
:102F000035110168896859E068B1007A58B168687C
:102F100010B1016809698847A8680168C9688847CD
:102F2000012084F8350100260BE0A01990F88800F4
:102F300030B1B1B2201D50F821000168C96C88473A
:102F4000761CB4F88400B042EFDC0022104613E097
:102F5000211891F8883073B190420BD086B2231DAE
:102F600053F8267096B243F82670A31891F888108B
:102F700083F88810521C401CB4F884108142E7DCAE
:102F800013E0581E80B2211D83420ED905E001EBEB
:102F900080035B6841F82030401CB1F880308342E8
:102FA000F5DC98B2401EA1F88000B4F8843093425A
:102FB000E7DC6868002804D00168496ABDE8F04190
:102FC0000847BDE8F0810000300100240348406854
:102FD000002802D00268926910477047300100242F
:102FE00003484068002802D00268126A1047704700
:102FF000300100242DE9F04F99B0044680F83411D7
:1030000029B10020A4F8E80019B0BDE8F08F04F55C
:10301000967005F006FC90B9D4E94B1204F5807562
:103020002046FFF753FC002000900346024601466D
:1030300001A801F069FF0168E96240682863B4F8FB
:10304000E80098B10020FB4F80F00105386920B1FD
:1030500007F1140005F0E5FB50B1002DD4D001A814
:1030600006F008FA3E8804F1A80520E00120EAE70E
:10307000F048143001F000FAD7E905122046FFF7B6
:1030800025FC0020009003460246014601A801F0FD
:103090003BFF016879614068B861E0E705EBC60075
:1030A0000168426801A806F0D5F9761CB6B2B4F8FA
:1030B000E800B042F2D8DF48068804F1EA00169032
:1030C00009E0169800EBC600016842682046FFF749
:1030D000FDFB761CB6B2B4F82A01B042F1D8DFF895
:1030E00058A3DAF8000090F84800012804D002281C
:1030F00077D0D0480688B8E1DFF838B30026BBF8AF
:1031000000700CE0B8B205EBC000804605F084FB0F
:10311000B04203DD404605F07FFB06467F1CB4F855
:10312000E800B842EEDCC54800880F2801D9C00885
:1031300000E001208146002000900346024601463F
:1031400012A801F0E1FED04652E0D1F88010884785
:10315000074612A805F060FB4844B8420BDDB742B1
:1031600009DA12A805F058FBB8423BDD12A805F0B9
:1031700053FB002836DD12A805F04EFBB84201DCF7
:10318000BE4200DA374612A805F046FB3F1A12A8E5
:1031900005F042FB024638B20090A94800210088A1
:1031A00003B217A801F0B0FE0168129140681390B5
:1031B000BBF8007010E005EBC70112AA14A805F0D7
:1031C0009CFB14A805F02DFB20B9206814A9426BC4
:1031D000204690477F1CBFB2B4F8E800B84207D938
:1031E000E9E710E0D8F800000168CA6F01219047B4
:1031F00012A805F011FBB042D8F800000168A4DB6A
:10320000C969884735E18F480078012878D00BE1FB
:1032100088484FF00008B5F900600088401C87B26C
:1032200026E005EBC000814605F0F1FA8246B9F9C7
:1032300006B005EBC700814605F0E9FA5045514656
:1032400006DDB9F90060B846084656450ADB0DE0D0
:103250000AD1B9F90610594500DDB846B9F90000A0
:10326000B04203DB064601E0B042FBDC7F1CBFB28C
:10327000B4F8E800B8421FFA88F0D2D805EBC007CE
:103280003868129078681390BDF94C00142801DA60
:10329000BDF9486012A805F0BAFA801BADF84C00E1
:1032A00012A8ADF8486001F0A5F812A805F0B9FA27
:1032B00030BBBDF94E00142800DD1420BDF84C30A1
:1032C00081B25D48BDF84A2000680091BDF8481001
:1032D0000668766FB0470646ADF84E0012A801F0BA
:1032E000CBF8206812A9426B20469047B888801B13
:1032F00000B2B88020B91FFA88F1284606F097F886
:10330000B4F8E800002883D1B3E04FF00009284664
:1033100005F082FA064647480088401C87B228E03C
:1033200005EBC00005EBC708B0F902A0B0F9041026
:10333000B8F90200504508DAB946404605F06CFA83
:10334000504551460CDD0E4611E00DD1B8F9040090
:10335000884200DDB946404605F05EFAB04206DC20
:10336000404605F059FA01E0B04200DA06467F1CFB
:10337000BFB2B4F8E800B8421FFA89F0D0D805EB24
:10338000C007B7F90600142803DA384605F044FAF6
:103390000646384605F045FAF0BB12A801F0BBFD21
:1033A0003888ADF84800B7F90200ADF84A00B9888E
:1033B000301A1428ADF84C1000DD142086B23846BF
:1033C00005F02AFABDF94A10401AB04205DC384629
:1033D00005F022FABDF94A10461A1748B1B2BDF8F5
:1033E0004C30BDF84A2000680091BDF848100668CE
:1033F000766FB047ADF84E0012A92068426B2046A8
:1034000090477888BDF84E1008447880F888BDF859
:103410004E10401A00B200E006E0F88020B91FFA12
:1034200089F1284606F003F8B4F8E80000287FF494
:103430006CAF1EE030010024A40100249C01002494
:103440009A0100249401002405EBC6000168129142
:103450004068139012A805F0E4F920B9206812A979
:10346000426B20469047761CB6B2B4F8E800B042F2
:10347000EAD80D48007800283FF4C6AD0020A4F833
:103480002A010A48048809E001A800EBC400016889
:103490004268169805F0DEFF641CA4B2BDF8440033
:1034A000A042F1D8B0E500009501002430010024CD
:1034B0000022A0F8842011464318491C202983F8D3
:1034C0008820F9DB7047704770B50646194886B00A
:1034D0000C4600221146008800B200901648008871
:1034E00003B203A801F010FD0246214601A805F031
:1034F00004FA0199114D2160029A626068680028FF
:1035000005D096F8343123B13046FFF7DFF906B025
:1035100070BD01688A6821469047286918B1016822
:103520008A68214690470648006801684A69214632
:103530009047ECE79C0100249A010024300100240C
:10354000A40100243EB50446084800221146008824
:1035500000B200900648008803B201A801F0D4FC34
:10356000206801A9426B204690473EBD9C01002483
:103570009A010024F8B5174900250160A0F884508D
:10358000A83005F077FF423005F074FF0023009566
:1035900042301A46194601F0B7FC0572A0F5967440
:1035A00045720D490D48FCF7B3FF00B101200C4EE8
:1035B00008B1358006E04FF48060308002207060F2
:1035C00002F078F9F56020467560B560FFF770FF8E
:1035D0002046F8BD0C980090CDB5E8B5C2A507F41B
:1035E0003001002401490860704700009001002468
:1035F0008162704738B526210546FCF773FD1148F6
:1036000000242860281D234622462146009401F00C
:103610007BFC0481012144818481C4810461446173
:10362000846180F8204080F82110074940F8041C8C
:1036300047F6FF7144620185FF2180F82A10001FC0
:1036400038BD000058A200905098009030B5044C4E
:10365000039D04600171C2800381458130BD00007B
:10366000CC980090012101727047704770B50D46EB
:103670000446606801684A6890470028F9D10D4EF9
:1036800030680168496E8847FFF7E8F83068012123
:1036900001F074F8606801688A68294690472068DC
:1036A000C16A2046884730680168096EBDE87040ED
:1036B00008470000A40100247047704701680969A9
:1036C0000847406801680968084710B50446406823
:1036D00001680968884738B9207A28B160680168AC
:1036E0004969884700202072606801680968884736
:1036F00018B1BDE81040FFF7B7B82068416A20460E
:10370000BDE81040084710B5FFF79EF8BDE810402F
:10371000FFF794B80168496C084710B50446406843
:1037200001680968884700280BD1607A002808D012
:10373000207A002805D12068416A2046BDE8104063
:10374000084710BD70B5044601202072606801680A
:10375000896988470546006820282BD008DC0128A5
:1037600028D002281BD004280BD0082807D110E04D
:1037700040281FD080281DD0B0F5807F1AD0FCF7DC
:103780005DFC2068297F826B204690472068026B91
:103790000BE02068297F826B2046904703E0206879
:1037A000C16B204688472068426B29462046BDE809
:1037B000704010472068C16B20468847E6E700004C
:1037C0002DE9F04F87B081460DF1500EDDE917402D
:1037D0009EE8200C0DF1400E9EE8C0110495CDE945
:1037E00005408DE8C011484604F034FB04490160EF
:1037F000C0E906AB1999016207B0BDE8F08F00007F
:1038000004990090704730B5C58A039C2D0A0D704D
:10381000018BC9081170817EC9001970407A20702F
:10382000012030BD2DE9FC410546D018DDE90976BF
:1038300001EB4004287A697A10FB01F000EB1020BC
:10384000401CC0F30728B8F1FF0F14D116F8010B84
:10385000FF280ED02188CDE900106B8B28462A8BDB
:10386000E98A00F062FD7F1E24F8020BEED1BDE86C
:10387000FC81A88AF7E716F8011B11FB08F000EBA2
:103880001020401CC0F30720FF280DD02188CDE96F
:1038900000106B8B28462A8BE98A00F046FD7F1EBC
:1038A00024F8020BE7D1E2E7A88AF8E710B5818295
:1038B00001F47842C28201F4FC63038301F01F0427
:1038C000448310BD2DE9F04104460E460020154604
:1038D000FF21A080E080217261721349E0602160C5
:1038E000206100F0FDFF0168096A8847A8B1002740
:1038F0000E480068C06C28B10168096A884770B139
:10390000002007436FB10A48314620602046FFF788
:10391000CDFF20466572BDE8F0810127E8E7012070
:10392000EFE7FCF78BFB0000409D0090A401002412
:103930005899009010B50446D0F83C0100280CD0EE
:103940000168C9688847002807D0D4F83C0101689D
:10395000896888470020C4F83C0110BD30B5DDE916
:103960000345416002720C3080E8380030BD000031
:1039700004490160002141600172C160016141613F
:1039800070470000C4990090704780F83410704769
:103990002DE9F0430546406987B00C46D0F8148005
:1039A00095F8340005F072FD074622464146284648
:1039B00004F0B1FD064622464146284604F0A5FD26
:1039C0000246334601A82946009704F073FD002CF7
:1039D00017DD601E414602B22846164604F09BFDE4
:1039E000814632464146284604F08FFD02464B464A
:1039F00003A82946009704F05DFD03A901A801F082
:103A000038FA404604F0FFFC401EA04217DD641C5B
:103A1000414622B22846164604F07DFD0446324651
:103A20004146284604F071FD0246234603A8294674
:103A3000009704F03FFD03A901A801F01AFA4046DF
:103A400004F0F0FC0646404604F02EFD04464046D5
:103A500004F0F9FC0021024605A82346009601F077
:103A600053FA01A9024603A804F047FFDDE9030168
:103A7000CDE90101286801A902692846904707B0ED
:103A8000BDE8F08310B500F045FB03490160022159
:103A900080F8341010BD0000D49900902DE9FC414D
:103AA0001B4C0546D5E90060A16969B3A06801EB2C
:103AB000D17101AF00EB6100CDE90070A3692A6804
:103AC000E169206800F040F800970646A3696A683B
:103AD000216A606800F038F80644D4E9051000EB6C
:103AE000D07001EB6000CDE90070A3692A68616ABB
:103AF000E06800F029F800978046A3696A68A16A27
:103B0000206900F021F84044C5E90060BDE8FC816F
:103B1000B410002418B10021020C02D003E02020D0
:103B2000704710210004020E01D100020831020F7B
:103B300001D10001091D820F01D18000891C0028DC
:103B400000DB491C084670472DE9FE475FEA000884
:103B50001D4617468A460B9C4FF001064FF0FF307A
:103B600005D52168C8F10008064649422160002FAA
:103B700004DA21685742764249422160002D4FF015
:103B8000010901DA5D4281463846FFF7C3FF03466B
:103B90003A4602A85146CDE90050404600F021F8CF
:103BA00021684E45029A114491FBF5F2104491FBB5
:103BB000F5F205FB1211216000D04042002E03DA1D
:103BC000C1F10001216005E003DD002907DA294485
:103BD00003E004DA002902DD491B2160401EBDE834
:103BE000FE872DE9FF4F0D009B4694460746DDE911
:103BF0000D4640D03CFA05F04FD001228246AA4043
:103C000007FA05F9B9FBF4F1521E0CEA020CE04682
:103C1000604601FB0AF10391FFF77CFFCDE9004606
:103C200001462B463A464046FFF7DBFF039900EB7F
:103C30000108B9FBF4F004FB1090FFF76BFF03469B
:103C4000B9FBF4F005EB0B0104FB109202A8CDE9DF
:103C500000405046FFF7C5FF31684044029A1144C6
:103C6000B1FBF4F21044B1FBF4F204FB1211316029
:103C700004B0BDE8F08FBBF1000F184608D00B462A
:103C80003A46CDE9004601466046FFF7AAFFEFE756
:103C90004FF0FF3030604008EAE707FB0CF7B7FB56
:103CA000F4F004FB10703060B7FBF4F0E0E738B5D7
:103CB00004460D46343004F04FF9B4F93E000022BA
:103CC000B4F93C3011460090284602F041FB38BD63
:103CD0003EB5044648890D4602AA218F401A01B21A
:103CE0002068D0F8B03020469847002817D02879AF
:103CF000002814D1D4F82401002810D00168C96824
:103D0000884700280BD0BDF808006A46ADF80000CF
:103D10000195D4F8240101688B68214698473EBD7F
:103D20003EB5054608790C46022824D0E08802AA50
:103D3000298F401A01B22868D0F8B0302846984739
:103D4000002818D0207908B1012814D1D5F8200115
:103D5000002810D00168C968884700280BD0BDF83A
:103D600008006A46ADF800000194D5F8200101680A
:103D70008B68294698473EBD2DE9F84304464089A3
:103D80000F461E46089D904632442944401A218918
:103D900000B20090891A3A460BB2414604F1340051
:103DA00002F0D6FAB4F90830002204F1B800114646
:103DB000009702F0CDFAB4F90A00002243461146FA
:103DC000009004F1600002F0C3FA21890022B4F9E6
:103DD0000A003346891B009009B204F18C0002F0FE
:103DE000B7FA60890021B4F90830401B009502B28F
:103DF00004F1E40002F0ACFA2046BDE8F84300F01C
:103E00000EB8343004F0D2BF10B5029CA0F81011E7
:103E1000A0F81221A0F81431A0F8164110BD38B551
:103E2000C56D04460AE0B4F93E000022B4F93C3006
:103E300011460090284602F08BFAAD69002DF2D1B0
:103E4000D4F8E0500AE0B4F9C2000022B4F9C0305E
:103E500011460090284602F07BFAAD69002DF2D1A0
:103E6000D4F888500AE0B4F96A000022B4F9683046
:103E700011460090284602F06BFAAD69002DF2D190
:103E8000D4F8B4500AE0B4F996000022B4F99430A2
:103E900011460090284602F05BFAAD69002DF2D180
:103EA000D4F80C510AE0B4F9EE000022B4F9EC3079
